{
  "contractName": "SplitETH",
  "abi": [
    {
      "constant": true,
      "inputs": [
        {
          "name": "",
          "type": "bytes32"
        },
        {
          "name": "",
          "type": "uint256"
        }
      ],
      "name": "groupUsers",
      "outputs": [
        {
          "name": "",
          "type": "address"
        }
      ],
      "payable": false,
      "stateMutability": "view",
      "type": "function"
    },
    {
      "constant": true,
      "inputs": [
        {
          "name": "",
          "type": "bytes32"
        }
      ],
      "name": "groupTimeout",
      "outputs": [
        {
          "name": "",
          "type": "uint256"
        }
      ],
      "payable": false,
      "stateMutability": "view",
      "type": "function"
    },
    {
      "constant": true,
      "inputs": [
        {
          "name": "",
          "type": "bytes32"
        }
      ],
      "name": "groupToken",
      "outputs": [
        {
          "name": "",
          "type": "address"
        }
      ],
      "payable": false,
      "stateMutability": "view",
      "type": "function"
    },
    {
      "constant": true,
      "inputs": [
        {
          "name": "",
          "type": "bytes32"
        }
      ],
      "name": "groupUpdatedTime",
      "outputs": [
        {
          "name": "",
          "type": "uint256"
        }
      ],
      "payable": false,
      "stateMutability": "view",
      "type": "function"
    },
    {
      "constant": true,
      "inputs": [
        {
          "name": "",
          "type": "bytes32"
        },
        {
          "name": "",
          "type": "address"
        }
      ],
      "name": "groupBalances",
      "outputs": [
        {
          "name": "",
          "type": "uint256"
        }
      ],
      "payable": false,
      "stateMutability": "view",
      "type": "function"
    },
    {
      "constant": true,
      "inputs": [
        {
          "name": "",
          "type": "bytes32"
        }
      ],
      "name": "groupCloseTime",
      "outputs": [
        {
          "name": "",
          "type": "uint256"
        }
      ],
      "payable": false,
      "stateMutability": "view",
      "type": "function"
    },
    {
      "anonymous": false,
      "inputs": [
        {
          "indexed": true,
          "name": "_name",
          "type": "bytes32"
        },
        {
          "indexed": true,
          "name": "_user",
          "type": "address"
        },
        {
          "indexed": true,
          "name": "_token",
          "type": "address"
        },
        {
          "indexed": false,
          "name": "_deposit",
          "type": "uint256"
        },
        {
          "indexed": false,
          "name": "_balance",
          "type": "uint256"
        }
      ],
      "name": "UserBalanceDeposited",
      "type": "event"
    },
    {
      "anonymous": false,
      "inputs": [
        {
          "indexed": true,
          "name": "_name",
          "type": "bytes32"
        },
        {
          "indexed": false,
          "name": "_closeTime",
          "type": "uint256"
        }
      ],
      "name": "GroupCloseInitiated",
      "type": "event"
    },
    {
      "anonymous": false,
      "inputs": [
        {
          "indexed": true,
          "name": "_name",
          "type": "bytes32"
        },
        {
          "indexed": false,
          "name": "_closeTime",
          "type": "uint256"
        }
      ],
      "name": "GroupCloseUpdated",
      "type": "event"
    },
    {
      "anonymous": false,
      "inputs": [
        {
          "indexed": true,
          "name": "_name",
          "type": "bytes32"
        },
        {
          "indexed": true,
          "name": "_user",
          "type": "address"
        },
        {
          "indexed": true,
          "name": "_token",
          "type": "address"
        },
        {
          "indexed": false,
          "name": "_refund",
          "type": "uint256"
        }
      ],
      "name": "UserBalanceRefunded",
      "type": "event"
    },
    {
      "anonymous": false,
      "inputs": [
        {
          "indexed": true,
          "name": "_name",
          "type": "bytes32"
        },
        {
          "indexed": false,
          "name": "_time",
          "type": "uint256"
        }
      ],
      "name": "GroupClosed",
      "type": "event"
    },
    {
      "anonymous": false,
      "inputs": [
        {
          "indexed": true,
          "name": "_name",
          "type": "bytes32"
        },
        {
          "indexed": false,
          "name": "_users",
          "type": "address[]"
        },
        {
          "indexed": false,
          "name": "_token",
          "type": "address"
        },
        {
          "indexed": false,
          "name": "_timeout",
          "type": "uint256"
        }
      ],
      "name": "GroupCreated",
      "type": "event"
    },
    {
      "constant": false,
      "inputs": [
        {
          "name": "_name",
          "type": "bytes32"
        },
        {
          "name": "_users",
          "type": "address[]"
        },
        {
          "name": "_token",
          "type": "address"
        },
        {
          "name": "_timeout",
          "type": "uint256"
        }
      ],
      "name": "createGroup",
      "outputs": [],
      "payable": false,
      "stateMutability": "nonpayable",
      "type": "function"
    },
    {
      "constant": false,
      "inputs": [
        {
          "name": "_name",
          "type": "bytes32"
        },
        {
          "name": "_user",
          "type": "address"
        },
        {
          "name": "_amount",
          "type": "uint256"
        }
      ],
      "name": "fundUser",
      "outputs": [],
      "payable": false,
      "stateMutability": "nonpayable",
      "type": "function"
    }
  ],
  "bytecode": "0x608060405234801561001057600080fd5b506105d9806100206000396000f30060806040526004361061008d5763ffffffff7c0100000000000000000000000000000000000000000000000000000000600035041663638028ec81146100925780638a1ad3d4146100bb57806390554574146100f257806396150c921461011c5780639f22051514610134578063a12c61501461014c578063b4378e0814610170578063b524c385146101a3575b600080fd5b34801561009e57600080fd5b506100b9600435600160a060020a03602435166044356101bb565b005b3480156100c757600080fd5b506100d6600435602435610273565b60408051600160a060020a039092168252519081900360200190f35b3480156100fe57600080fd5b5061010a6004356102aa565b60408051918252519081900360200190f35b34801561012857600080fd5b506100d66004356102bc565b34801561014057600080fd5b5061010a6004356102d7565b34801561015857600080fd5b5061010a600435600160a060020a03602435166102e9565b34801561017c57600080fd5b506100b9600480359060248035908101910135600160a060020a0360443516606435610303565b3480156101af57600080fd5b5061010a6004356104e4565b600160a060020a038216151561021b576040805160e560020a62461bcd02815260206004820152600c60248201527f496e76616c696420757365720000000000000000000000000000000000000000604482015290519081900360640190fd5b600083815260208181526040808320600160a060020a038616845290915290205461024c908263ffffffff6104f616565b600093845260208481526040808620600160a060020a039095168652939052919092205550565b60016020528160005260406000208181548110151561028e57fe5b600091825260209091200154600160a060020a03169150829050565b60036020526000908152604090205481565b600260205260009081526040902054600160a060020a031681565b60056020526000908152604090205481565b600060208181529281526040808220909352908152205481565b6000831161035b576040805160e560020a62461bcd02815260206004820152600b60248201527f456d7074792067726f7570000000000000000000000000000000000000000000604482015290519081900360640190fd5b600a8311156103b4576040805160e560020a62461bcd02815260206004820152600f60248201527f47726f757020746f6f206c617267650000000000000000000000000000000000604482015290519081900360640190fd5b60008581526001602052604090205415610418576040805160e560020a62461bcd02815260206004820152600b60248201527f4e616d6520696e20757365000000000000000000000000000000000000000000604482015290519081900360640190fd5b6000858152600160205260409020610431908585610509565b506000858152600260209081526040808320805473ffffffffffffffffffffffffffffffffffffffff1916600160a060020a038716908117909155600383529281902084905580518083019390935282018390526060808352820185905286917f5ac0deb59837edf1f086833bdb252ecb33606a49bebfb09ff32038fdbc11d232918791879187918791819060808201908790870280828437604051920182900397509095505050505050a25050505050565b60046020526000908152604090205481565b8181018281101561050357fe5b92915050565b828054828255906000526020600020908101928215610569579160200282015b8281111561056957815473ffffffffffffffffffffffffffffffffffffffff1916600160a060020a03843516178255602090920191600190910190610529565b50610575929150610579565b5090565b6105aa91905b8082111561057557805473ffffffffffffffffffffffffffffffffffffffff1916815560010161057f565b905600a165627a7a7230582012ce5b61ea66b06f0ee6510f3d3ff6407ea405f18fe376bff8d8c503b5585baf0029",
  "source": "pragma solidity ^0.4.24;\n\nimport \"openzeppelin-solidity/contracts/token/ERC20/ERC20.sol\";\nimport \"openzeppelin-solidity/contracts/math/SafeMath.sol\";\n\ncontract SplitETH {\n  using SafeMath for uint256;\n\n    mapping (bytes32 => mapping (address => uint256)) public groupBalances;\n    mapping (bytes32 => address[]) public groupUsers;\n    mapping (bytes32 => address) public groupToken;\n    mapping (bytes32 => uint256) public groupTimeout;\n    mapping (bytes32 => uint256) public groupCloseTime;\n    mapping (bytes32 => uint256) public groupUpdatedTime;\n\n    event UserBalanceDeposited(bytes32 indexed _name, address indexed _user, address indexed _token, uint256 _deposit, uint256 _balance);\n    event GroupCloseInitiated(bytes32 indexed _name, uint256 _closeTime);\n    event GroupCloseUpdated(bytes32 indexed _name, uint256 _closeTime);\n    event UserBalanceRefunded(bytes32 indexed _name, address indexed _user, address indexed _token, uint256 _refund);\n    event GroupClosed(bytes32 indexed _name, uint256 _time);\n\n    event GroupCreated(bytes32 indexed _name,  address[] _users, address _token, uint256 _timeout);\n\n    function createGroup(bytes32 _name, address[] _users, address _token, uint256 _timeout) external {\n        //TODO: Check _users are unique\n        require(_users.length > 0, \"Empty group\");\n        require(_users.length <= 10, \"Group too large\");\n        require(groupUsers[_name].length == 0, \"Name in use\");\n        groupUsers[_name] = _users;\n        groupToken[_name] = _token;\n        groupTimeout[_name] = _timeout;\n\n        emit GroupCreated(_name, _users, _token, _timeout);\n\n    }\n\n    function fundUser(bytes32 _name, address _user, uint256 _amount) external {\n        require(_user != address(0), \"Invalid user\");\n        //require(_token != address(0), \"Invalid token\");\n        //TODO: Check name actially exists\n        //require(ERC20(groupToken[_name]).transferFrom(msg.sender, address(this), _amount), \"Transfer Failed\");\n        groupBalances[_name][_user] = groupBalances[_name][_user].add(_amount);\n        //emit UserBalanceUpdated(_name, _user, groupToken[_name], groupBalances[_name][_user]);\n    }\n\n    /* function initiateCloseGroup(bytes32 _name) external {\n        //TODO: Check msg.sender is in _name group\n        require(groupCloseTime[_name] == 0, \"Close already initiated\");\n        groupCloseTime[_name] = now.add(groupTimeout[_name]);\n        emit GroupCloseInitiated(_name, groupCloseTime[_name]);\n    }\n\n    function finalizeCloseGroup(bytes32 _name) external {\n        //TODO: Check msg.sender is in _name group\n        require(groupCloseTime[_name] != 0, \"Close not initiated\");\n        require(now > groupCloseTime[_name], \"Timeout not met\");\n        for (uint8 i = 0; i < groupUsers[_name].length; i++) {\n            address user = groupUsers[_name][i];\n            require(ERC20(groupToken[_name]).transferFrom(address(this), user, groupBalances[_name][user]), \"Transfer Failed\");\n            //emit UserBalanceRefunded(_name, _user, groupToken[_name], groupBalances[_name][user]);\n            groupBalances[_name][groupUsers[_name][i]] = 0;\n        }\n        delete groupUsers[_name];\n        delete groupToken[_name];\n        delete groupTimeout[_name];\n        delete groupCloseTime[_name];\n        emit GroupClosed(_name, now);\n    }\n\n    function updateGroup(bytes32 _name, uint256[] _credits, uint256 _timestamp, bytes[] _sigs) external {\n        //Order of _credits & _sigs should match groupUsers[_name]\n        //Check it sums to 0\n        require(groupUpdatedTime[_name] < _timestamp);\n        groupUpdatedTime[_name] = _timestamp;\n        for (uint8 j = 0; j < _credits.length; j++) {\n\n        }\n\n        /* for (uint8 i = 0; i < groupUsers[_name].length; i++) {\n            bytes32 dataToBeSigned = keccak256(_credits, _timestamp);\n            (uint8 v, bytes32 r, bytes32 s) = getSig(_sigs[i]);\n            address signer = ecrecover(dataToBeSigned, v, r, s);\n            require(signer == groupUsers[_name][i], \"Mismatched signature\");\n\n        } */\n        //Upcate groupBalances\n\n\n    //} */\n\n\n}\n",
  "sourcePath": "/Users/pabloruiz55/Documents/SplitETH/contracts/SplitETH.sol",
  "compiler": {
    "name": "solc",
    "version": "0.4.24+commit.e67f0147.Emscripten.clang"
  },
  "schemaVersion": "2.0.1",
  "updatedAt": "2018-09-08T13:21:32.866Z"
}