{
  "contractName": "Pablo",
  "abi": [
    {
      "constant": true,
      "inputs": [],
      "name": "myData",
      "outputs": [
        {
          "name": "",
          "type": "uint256"
        }
      ],
      "payable": false,
      "stateMutability": "view",
      "type": "function"
    },
    {
      "inputs": [],
      "payable": false,
      "stateMutability": "nonpayable",
      "type": "constructor"
    },
    {
      "anonymous": false,
      "inputs": [
        {
          "indexed": false,
          "name": "_message",
          "type": "string"
        }
      ],
      "name": "PabloEvent",
      "type": "event"
    },
    {
      "constant": false,
      "inputs": [
        {
          "name": "x",
          "type": "uint256"
        }
      ],
      "name": "setData",
      "outputs": [],
      "payable": false,
      "stateMutability": "nonpayable",
      "type": "function"
    }
  ],
  "bytecode": "0x608060405234801561001057600080fd5b506021600055610122806100256000396000f30060806040526004361060485763ffffffff7c01000000000000000000000000000000000000000000000000000000006000350416632bb141048114604d5780635b4b73a9146071575b600080fd5b348015605857600080fd5b50605f6088565b60408051918252519081900360200190f35b348015607c57600080fd5b506086600435608e565b005b60005481565b60008190556040805160208082526019908201527f446174612073746f726564207375636365737366756c6c7921000000000000008183015290517f5cacbb3b5432942fb7f3119f6754f052f73f7c508ee622aa7508eb77ed5ee5259181900360600190a1505600a165627a7a723058209e57241ab244bc1b9d747a00c5f1ca981bad63ca7416d29da21b564a6cd755510029",
  "source": "pragma solidity ^0.4.24;\n\ncontract Pablo {\n  event PabloEvent(string _message);\n\n  uint public myData;\n\n  constructor(){\n    myData = 33;\n  }\n\n  function setData(uint x) public {\n    myData = x;\n\n    emit PabloEvent(\"Data stored successfully!\");\n  }\n}\n",
  "sourcePath": "/Users/adamdossa/Development/Ethereum/SplitETH/contracts/Pablo.sol",
  "compiler": {
    "name": "solc",
    "version": "0.4.24+commit.e67f0147.Emscripten.clang"
  },
  "schemaVersion": "2.0.1",
  "updatedAt": "2018-09-08T14:29:01.539Z"
}