{
  "contractName": "SplitETH",
  "abi": [
    {
      "constant": true,
      "inputs": [
        {
          "name": "",
          "type": "bytes32"
        },
        {
          "name": "",
          "type": "address"
        }
      ],
      "name": "inGroup",
      "outputs": [
        {
          "name": "",
          "type": "bool"
        }
      ],
      "payable": false,
      "stateMutability": "view",
      "type": "function"
    },
    {
      "constant": true,
      "inputs": [
        {
          "name": "",
          "type": "bytes32"
        },
        {
          "name": "",
          "type": "address"
        }
      ],
      "name": "groupState",
      "outputs": [
        {
          "name": "amount",
          "type": "uint256"
        },
        {
          "name": "isCredit",
          "type": "bool"
        }
      ],
      "payable": false,
      "stateMutability": "view",
      "type": "function"
    },
    {
      "constant": true,
      "inputs": [
        {
          "name": "",
          "type": "bytes32"
        },
        {
          "name": "",
          "type": "uint256"
        }
      ],
      "name": "groupUsers",
      "outputs": [
        {
          "name": "",
          "type": "address"
        }
      ],
      "payable": false,
      "stateMutability": "view",
      "type": "function"
    },
    {
      "constant": true,
      "inputs": [
        {
          "name": "",
          "type": "bytes32"
        }
      ],
      "name": "groupTimeout",
      "outputs": [
        {
          "name": "",
          "type": "uint256"
        }
      ],
      "payable": false,
      "stateMutability": "view",
      "type": "function"
    },
    {
      "constant": true,
      "inputs": [
        {
          "name": "",
          "type": "bytes32"
        }
      ],
      "name": "groupToken",
      "outputs": [
        {
          "name": "",
          "type": "address"
        }
      ],
      "payable": false,
      "stateMutability": "view",
      "type": "function"
    },
    {
      "constant": true,
      "inputs": [
        {
          "name": "",
          "type": "bytes32"
        },
        {
          "name": "",
          "type": "address"
        }
      ],
      "name": "groupBalances",
      "outputs": [
        {
          "name": "",
          "type": "uint256"
        }
      ],
      "payable": false,
      "stateMutability": "view",
      "type": "function"
    },
    {
      "constant": true,
      "inputs": [
        {
          "name": "",
          "type": "bytes32"
        }
      ],
      "name": "groupNonce",
      "outputs": [
        {
          "name": "",
          "type": "uint256"
        }
      ],
      "payable": false,
      "stateMutability": "view",
      "type": "function"
    },
    {
      "constant": true,
      "inputs": [
        {
          "name": "",
          "type": "bytes32"
        }
      ],
      "name": "groupCloseTime",
      "outputs": [
        {
          "name": "",
          "type": "uint256"
        }
      ],
      "payable": false,
      "stateMutability": "view",
      "type": "function"
    },
    {
      "anonymous": false,
      "inputs": [
        {
          "indexed": true,
          "name": "_name",
          "type": "bytes32"
        },
        {
          "indexed": false,
          "name": "_users",
          "type": "address[]"
        },
        {
          "indexed": true,
          "name": "_token",
          "type": "address"
        },
        {
          "indexed": false,
          "name": "_timeout",
          "type": "uint256"
        }
      ],
      "name": "GroupCreated",
      "type": "event"
    },
    {
      "anonymous": false,
      "inputs": [
        {
          "indexed": true,
          "name": "_name",
          "type": "bytes32"
        },
        {
          "indexed": true,
          "name": "_user",
          "type": "address"
        },
        {
          "indexed": true,
          "name": "_token",
          "type": "address"
        },
        {
          "indexed": false,
          "name": "_deposit",
          "type": "uint256"
        },
        {
          "indexed": false,
          "name": "_balance",
          "type": "uint256"
        }
      ],
      "name": "UserBalanceUpdated",
      "type": "event"
    },
    {
      "anonymous": false,
      "inputs": [
        {
          "indexed": true,
          "name": "_name",
          "type": "bytes32"
        },
        {
          "indexed": false,
          "name": "_challengeEndTime",
          "type": "uint256"
        }
      ],
      "name": "GroupClosed",
      "type": "event"
    },
    {
      "anonymous": false,
      "inputs": [
        {
          "indexed": true,
          "name": "_name",
          "type": "bytes32"
        },
        {
          "indexed": false,
          "name": "_time",
          "type": "uint256"
        }
      ],
      "name": "GroupUpdated",
      "type": "event"
    },
    {
      "anonymous": false,
      "inputs": [
        {
          "indexed": true,
          "name": "_name",
          "type": "bytes32"
        },
        {
          "indexed": true,
          "name": "_user",
          "type": "address"
        },
        {
          "indexed": true,
          "name": "_token",
          "type": "address"
        },
        {
          "indexed": false,
          "name": "_refund",
          "type": "uint256"
        }
      ],
      "name": "UserBalanceWithdrawn",
      "type": "event"
    },
    {
      "constant": false,
      "inputs": [
        {
          "name": "_name",
          "type": "bytes32"
        },
        {
          "name": "_users",
          "type": "address[]"
        },
        {
          "name": "_token",
          "type": "address"
        },
        {
          "name": "_timeout",
          "type": "uint256"
        }
      ],
      "name": "createGroup",
      "outputs": [],
      "payable": false,
      "stateMutability": "nonpayable",
      "type": "function"
    },
    {
      "constant": false,
      "inputs": [
        {
          "name": "_name",
          "type": "bytes32"
        },
        {
          "name": "_user",
          "type": "address"
        },
        {
          "name": "_amount",
          "type": "uint256"
        }
      ],
      "name": "fundUser",
      "outputs": [],
      "payable": false,
      "stateMutability": "nonpayable",
      "type": "function"
    },
    {
      "constant": false,
      "inputs": [
        {
          "name": "_name",
          "type": "bytes32"
        },
        {
          "name": "_amounts",
          "type": "uint256[]"
        },
        {
          "name": "_isCredits",
          "type": "bool[]"
        },
        {
          "name": "_timestamp",
          "type": "uint256"
        },
        {
          "name": "_vs",
          "type": "uint8[]"
        },
        {
          "name": "_rs",
          "type": "bytes32[]"
        },
        {
          "name": "_ss",
          "type": "bytes32[]"
        }
      ],
      "name": "closeGroup",
      "outputs": [],
      "payable": false,
      "stateMutability": "nonpayable",
      "type": "function"
    },
    {
      "constant": false,
      "inputs": [
        {
          "name": "_name",
          "type": "bytes32"
        },
        {
          "name": "_amounts",
          "type": "uint256[]"
        },
        {
          "name": "_isCredits",
          "type": "bool[]"
        },
        {
          "name": "_timestamp",
          "type": "uint256"
        },
        {
          "name": "_vs",
          "type": "uint8[]"
        },
        {
          "name": "_rs",
          "type": "bytes32[]"
        },
        {
          "name": "_ss",
          "type": "bytes32[]"
        }
      ],
      "name": "updateGroup",
      "outputs": [],
      "payable": false,
      "stateMutability": "nonpayable",
      "type": "function"
    },
    {
      "constant": false,
      "inputs": [
        {
          "name": "_name",
          "type": "bytes32"
        }
      ],
      "name": "pullFunds",
      "outputs": [],
      "payable": false,
      "stateMutability": "nonpayable",
      "type": "function"
    },
    {
      "constant": true,
      "inputs": [
        {
          "name": "_name",
          "type": "bytes32"
        },
        {
          "name": "_amounts",
          "type": "uint256[]"
        },
        {
          "name": "_isCredits",
          "type": "bool[]"
        },
        {
          "name": "_timestamp",
          "type": "uint256"
        },
        {
          "name": "_vs",
          "type": "uint8[]"
        },
        {
          "name": "_rs",
          "type": "bytes32[]"
        },
        {
          "name": "_ss",
          "type": "bytes32[]"
        }
      ],
      "name": "checkSigs",
      "outputs": [
        {
          "name": "",
          "type": "bool"
        }
      ],
      "payable": false,
      "stateMutability": "view",
      "type": "function"
    },
    {
      "constant": true,
      "inputs": [
        {
          "name": "_name",
          "type": "bytes32"
        },
        {
          "name": "_user",
          "type": "address"
        },
        {
          "name": "_amounts",
          "type": "uint256[]"
        },
        {
          "name": "_isCredits",
          "type": "bool[]"
        },
        {
          "name": "_timestamp",
          "type": "uint256"
        },
        {
          "name": "_v",
          "type": "uint8"
        },
        {
          "name": "_r",
          "type": "bytes32"
        },
        {
          "name": "_s",
          "type": "bytes32"
        }
      ],
      "name": "checkSig",
      "outputs": [
        {
          "name": "",
          "type": "bool"
        }
      ],
      "payable": false,
      "stateMutability": "view",
      "type": "function"
    }
  ],
  "bytecode": "0x608060405234801561001057600080fd5b50612605806100206000396000f3006080604052600436106100da5763ffffffff7c01000000000000000000000000000000000000000000000000000000006000350416633fa8f50781146100df57806347e0238014610117578063539d8f8514610131578063638028ec1461016e5780638a1ad3d4146101955780638b0d296e146101cc578063905545741461022457806396150c921461024e578063a12c615014610266578063a318dd111461028a578063b4378e08146102a2578063b4dad596146102d5578063b524c3851461041a578063c44cafca14610432578063d15006a5146104e6575b600080fd5b3480156100eb57600080fd5b50610103600435600160a060020a036024351661062b565b604080519115158252519081900360200190f35b34801561012357600080fd5b5061012f60043561064b565b005b34801561013d57600080fd5b50610155600435600160a060020a03602435166109b1565b6040805192835290151560208301528051918290030190f35b34801561017a57600080fd5b5061012f600435600160a060020a03602435166044356109d8565b3480156101a157600080fd5b506101b0600435602435610cc5565b60408051600160a060020a039092168252519081900360200190f35b3480156101d857600080fd5b5061012f6004803590602480358082019290810135916044358082019290810135916064359160843580830192908201359160a43580830192908201359160c435918201910135610cfc565b34801561023057600080fd5b5061023c600435610ed6565b60408051918252519081900360200190f35b34801561025a57600080fd5b506101b0600435610ee8565b34801561027257600080fd5b5061023c600435600160a060020a0360243516610f03565b34801561029657600080fd5b5061023c600435610f1d565b3480156102ae57600080fd5b5061012f600480359060248035908101910135600160a060020a0360443516606435610f2f565b3480156102e157600080fd5b5060408051602060046024803582810135848102808701860190975280865261010396843596369660449591949091019291829185019084908082843750506040805187358901803560208181028481018201909552818452989b9a99890198929750908201955093508392508501908490808284375050604080516020808901358a01803580830284810184018652818552999c8b359c909b909a950198509296508101945090925082919085019084908082843750506040805187358901803560208181028481018201909552818452989b9a998901989297509082019550935083925085019084908082843750506040805187358901803560208181028481018201909552818452989b9a9989019892975090820195509350839250850190849080828437509497506112739650505050505050565b34801561042657600080fd5b5061023c60043561150d565b34801561043e57600080fd5b5060408051602060046044358181013583810280860185019096528085526101039583359560248035600160a060020a031696369695606495939492019291829185019084908082843750506040805187358901803560208181028481018201909552818452989b9a9989019892975090820195509350839250850190849080828437509497505084359550505050602082013560ff1691604081013591506060013561151f565b3480156104f257600080fd5b5060408051602060046024803582810135848102808701860190975280865261012f96843596369660449591949091019291829185019084908082843750506040805187358901803560208181028481018201909552818452989b9a99890198929750908201955093508392508501908490808284375050604080516020808901358a01803580830284810184018652818552999c8b359c909b909a950198509296508101945090925082919085019084908082843750506040805187358901803560208181028481018201909552818452989b9a998901989297509082019550935083925085019084908082843750506040805187358901803560208181028481018201909552818452989b9a9989019892975090820195509350839250850190849080828437509497506116a69650505050505050565b600160209081526000928352604080842090915290825290205460ff1681565b61065361251e565b600082815260016020908152604080832033845290915281205460ff1615156106c6576040805160e560020a62461bcd02815260206004820152601460248201527f55736572206973206e6f7420696e2067726f7570000000000000000000000000604482015290519081900360640190fd5b600083815260056020526040902054151561072b576040805160e560020a62461bcd02815260206004820152601360248201527f436c6f7365206e6f7420696e6974696174656400000000000000000000000000604482015290519081900360640190fd5b6000838152600560205260409020544211610790576040805160e560020a62461bcd02815260206004820152601760248201527f4368616c6c656e676520706572696f6420616374697665000000000000000000604482015290519081900360640190fd5b60008381526007602090815260408083203384528252918290208251808401909352805483526001015460ff16158015918301919091529092506107fe5781516000848152602081815260408083203384529091529020546107f79163ffffffff61195e16565b905061082a565b81516000848152602081815260408083203384529091529020546108279163ffffffff61197116565b90505b60008381526003602090815260408083205481517fa9059cbb000000000000000000000000000000000000000000000000000000008152336004820152602481018690529151600160a060020a039091169363a9059cbb93604480850194919392918390030190829087803b1580156108a257600080fd5b505af11580156108b6573d6000803e3d6000fd5b505050506040513d60208110156108cc57600080fd5b50511515610924576040805160e560020a62461bcd02815260206004820152600f60248201527f5472616e73666572204661696c65640000000000000000000000000000000000604482015290519081900360640190fd5b6000838152600360209081526040918290205482518481529251600160a060020a0390911692339287927f74ed8246578a544482ad8494d76805b264b0b7666c3700eb6e17eec4d0fed7f49281900390910190a45050600081815260208181526040808320338085529083528184208490559383526001825280832093835292905220805460ff19169055565b60076020908152600092835260408084209091529082529020805460019091015460ff1682565b600160a060020a0382161515610a38576040805160e560020a62461bcd02815260206004820152600c60248201527f496e76616c696420757365720000000000000000000000000000000000000000604482015290519081900360640190fd5b6000838152600160209081526040808320600160a060020a038616845290915290205460ff161515610ab4576040805160e560020a62461bcd02815260206004820152601160248201527f55736572206e6f7420696e2067726f7570000000000000000000000000000000604482015290519081900360640190fd5b60008381526005602052604090205415610b18576040805160e560020a62461bcd02815260206004820152600f60248201527f47726f757020697320636c6f7365640000000000000000000000000000000000604482015290519081900360640190fd5b60008381526003602090815260408083205481517f23b872dd000000000000000000000000000000000000000000000000000000008152336004820152306024820152604481018690529151600160a060020a03909116936323b872dd93606480850194919392918390030190829087803b158015610b9657600080fd5b505af1158015610baa573d6000803e3d6000fd5b505050506040513d6020811015610bc057600080fd5b50511515610c18576040805160e560020a62461bcd02815260206004820152600f60248201527f5472616e73666572204661696c65640000000000000000000000000000000000604482015290519081900360640190fd5b600083815260208181526040808320600160a060020a0386168452909152902054610c49908263ffffffff61195e16565b600084815260208181526040808320600160a060020a03808816808652828552838620879055898652600385528386205495819052918452825187815293840195909552815193909416939287927fb0b433ac55fa87d2325d965ba48a4c1bd255f4d962fcc30f2b0237306c86047f92908290030190a4505050565b600260205281600052604060002081815481101515610ce057fe5b600091825260209091200154600160a060020a03169150829050565b60008c81526005602052604090205415610d60576040805160e560020a62461bcd02815260206004820152601460248201527f47726f757020616c726561647920636c6f736564000000000000000000000000604482015290519081900360640190fd5b60008c815260046020526040902054610d8090429063ffffffff61195e16565b60008d8152600560209081526040918290209290925580518c830281810184019092528c8152610e83928f928f918f9182918501908490808284378201915050505050508b8b808060200260200160405190810160405280939291908181526020018383602002808284378201915050505050508a8a8a808060200260200160405190810160405280939291908181526020018383602002808284378201915050505050508989808060200260200160405190810160405280939291908181526020018383602002808284375050604080516020808f0282810182019093528e82529095508e94508d9350839250850190849080828437506116a6945050505050565b60008c81526005602090815260409182902054825190815291518e927fb1a73a0cf4b170db78d7ce693ffa2a96b34006943944d20eac8c523e86d0e29192908290030190a2505050505050505050505050565b60046020526000908152604090205481565b600360205260009081526040902054600160a060020a031681565b600060208181529281526040808220909352908152205481565b60066020526000908152604090205481565b600060018411610f89576040805160e560020a62461bcd02815260206004820152600b60248201527f456d7074792067726f7570000000000000000000000000000000000000000000604482015290519081900360640190fd5b6004841115610fe2576040805160e560020a62461bcd02815260206004820152600f60248201527f47726f757020746f6f206c617267650000000000000000000000000000000000604482015290519081900360640190fd5b60008681526002602052604090205415611046576040805160e560020a62461bcd02815260206004820152600b60248201527f4e616d6520696e20757365000000000000000000000000000000000000000000604482015290519081900360640190fd5b600160a060020a03831615156110a6576040805160e560020a62461bcd02815260206004820152600d60248201527f496e76616c696420746f6b656e00000000000000000000000000000000000000604482015290519081900360640190fd5b60008681526002602052604090206110bf908686612535565b50506000858152600360209081526040808320805473ffffffffffffffffffffffffffffffffffffffff1916600160a060020a038716179055600490915281208290555b60ff811684111561120157600086815260016020526040812090868660ff851681811061112c57fe5b60209081029290920135600160a060020a03168352508101919091526040016000205460ff16156111a7576040805160e560020a62461bcd02815260206004820152600f60248201527f4475706c69636174652075736572730000000000000000000000000000000000604482015290519081900360640190fd5b600086815260016020819052604082209091878760ff86168181106111c857fe5b60209081029290920135600160a060020a0316835250810191909152604001600020805460ff1916911515919091179055600101611103565b82600160a060020a031686600019167f5ac0deb59837edf1f086833bdb252ecb33606a49bebfb09ff32038fdbc11d232878786604051808060200183815260200182810382528585828181526020019250602002808284376040519201829003965090945050505050a3505050505050565b600080835185511415156112d1576040805160e560020a62461bcd02815260206004820152600e60248201527f426164207369676e617475726573000000000000000000000000000000000000604482015290519081900360640190fd5b825185511461132a576040805160e560020a62461bcd02815260206004820152600e60248201527f426164207369676e617475726573000000000000000000000000000000000000604482015290519081900360640190fd5b600089815260026020526040902054855114611390576040805160e560020a62461bcd02815260206004820152601560248201527f496e636f72726563742073696773206c656e6774680000000000000000000000604482015290519081900360640190fd5b87518551146113e9576040805160e560020a62461bcd02815260206004820152601860248201527f496e636f727265637420616d6f756e7473206c656e6774680000000000000000604482015290519081900360640190fd5b5060005b60008981526002602052604090205460ff821610156114fe57600089815260026020526040902080546114a0918b9160ff851690811061142957fe5b9060005260206000200160009054906101000a9004600160a060020a03168a8a8a8a8760ff1681518110151561145b57fe5b906020019060200201518a8860ff1681518110151561147657fe5b906020019060200201518a8960ff1681518110151561149157fe5b9060200190602002015161151f565b15156114f6576040805160e560020a62461bcd02815260206004820152601160248201527f496e76616c6964207369676e6174757265000000000000000000000000000000604482015290519081900360640190fd5b6001016113ed565b50600198975050505050505050565b60056020526000908152604090205481565b6000808651885114151561157d576040805160e560020a62461bcd02815260206004820152601a60248201527f496e636f727265637420697343726564697473206c656e677468000000000000604482015290519081900360640190fd5b875160021415611596576115938a898989611983565b90505b8751600314156115af576115ac8a898989611cb2565b90505b8751600414156115c8576115c58a898989611fc1565b90505b604080516000808252602080830180855285905260ff8916838501526060830188905260808301879052925160019360a0808501949193601f19840193928390039091019190865af1158015611622573d6000803e3d6000fd5b50505060206040510351600160a060020a031689600160a060020a0316141515611696576040805160e560020a62461bcd02815260206004820152601260248201527f5369676e6174757265206d69736d617463680000000000000000000000000000604482015290519081900360640190fd5b5060019998505050505050505050565b600087815260016020908152604080832033845290915290205460ff161515611719576040805160e560020a62461bcd02815260206004820152601460248201527f55736572206973206e6f7420696e2067726f7570000000000000000000000000604482015290519081900360640190fd5b600087815260066020526040902054841161173357600080fd5b6000878152600560205260409020541515611798576040805160e560020a62461bcd02815260206004820152601060248201527f47726f7570206e6f7420636c6f73656400000000000000000000000000000000604482015290519081900360640190fd5b84518651146117f1576040805160e560020a62461bcd02815260206004820152601560248201527f496e76616c6964207374617465206c656e677468730000000000000000000000604482015290519081900360640190fd5b600087815260026020526040902054865114611857576040805160e560020a62461bcd02815260206004820152601460248201527f496e76616c69642075736572206c656e67746873000000000000000000000000604482015290519081900360640190fd5b6000878152600560205260409020544211156118bd576040805160e560020a62461bcd02815260206004820152601b60248201527f4368616c6c656e676520706572696f64206e6f74206163746976650000000000604482015290519081900360640190fd5b6118c98787878761235d565b151561191f576040805160e560020a62461bcd02815260206004820152600d60248201527f496e76616c696420737461746500000000000000000000000000000000000000604482015290519081900360640190fd5b60408051428152905188917fed7eceb3ac9e8f473771775da5d245244aed7f7d4f78524fddd21280cda3aa5c919081900360200190a250505050505050565b8181018281101561196b57fe5b92915050565b60008282111561197d57fe5b50900390565b60008060008030888689600081518110151561199b57fe5b906020019060200201518960008151811015156119b457fe5b906020019060200201518b60018151811015156119cd57fe5b906020019060200201518b60018151811015156119e657fe5b6020908102909101810151604080516c01000000000000000000000000600160a060020a03909a16999099028984015260348901979097526054880195909552607487019390935260f860020a91151582026094870152609586015291151590910260b58401528151609681850301815260b690930191829052825182918401908083835b60208310611a8a5780518252601f199092019160209182019101611a6b565b51815160209384036101000a6000190180199092169116179052604080519290940182900382207f616464726573732073706c697445544800000000000000000000000000000000838301527f62797465733332206e616d65000000000000000000000000000000000000000060308401527f75696e743235362074696d657374616d70000000000000000000000000000000603c8401527f75696e7432353620616d6f756e745f3000000000000000000000000000000000604d8401527f626f6f6c2069734372656469745f300000000000000000000000000000000000605d8401527f75696e7432353620616d6f756e745f3100000000000000000000000000000000606c8401527f626f6f6c2069734372656469745f310000000000000000000000000000000000607c8401528451808403606b018152608b9093019485905282519099509195509293508392850191508083835b60208310611c015780518252601f199092019160209182019101611be2565b51815160209384036101000a6000190180199092169116179052604080519290940182900382208282018190528285018a905284518084038601815260609093019485905282519098509195509293508392850191508083835b60208310611c7a5780518252601f199092019160209182019101611c5b565b5181516020939093036101000a600019018019909116921691909117905260405192018290039091209b9a5050505050505050505050565b600080600080308886896000815181101515611cca57fe5b90602001906020020151896000815181101515611ce357fe5b906020019060200201518b6001815181101515611cfc57fe5b906020019060200201518b6001815181101515611d1557fe5b906020019060200201518d6002815181101515611d2e57fe5b906020019060200201518d6002815181101515611d4757fe5b6020908102909101810151604080516c01000000000000000000000000600160a060020a03909c169b909b028b84015260348b019990995260548a0197909752607489019590955260f860020a9315158402609489015260958801929092521515820260b587015260b686015291151590910260d6840152815160b781850301815260d790930191829052825182918401908083835b60208310611dfc5780518252601f199092019160209182019101611ddd565b51815160001960209485036101000a01908116901991909116179052604080519490920184900384207f616464726573732073706c697445544800000000000000000000000000000000858301527f62797465733332206e616d65000000000000000000000000000000000000000060308601527f75696e743235362074696d657374616d70000000000000000000000000000000603c8601527f75696e7432353620616d6f756e745f3000000000000000000000000000000000604d8601527f626f6f6c2069734372656469745f300000000000000000000000000000000000605d8601527f75696e7432353620616d6f756e745f3100000000000000000000000000000000606c8601527f626f6f6c2069734372656469745f310000000000000000000000000000000000607c8601527f75696e7432353620616d6f756e745f3200000000000000000000000000000000608b8601527f626f6f6c2069734372656469745f320000000000000000000000000000000000609b8601528251608a81870301815260aa9095019283905284519099509395509093508392908501915080838360208310611c015780518252601f199092019160209182019101611be2565b600080600080308886896000815181101515611fd957fe5b90602001906020020151896000815181101515611ff257fe5b906020019060200201518b600181518110151561200b57fe5b906020019060200201518b600181518110151561202457fe5b906020019060200201518d600281518110151561203d57fe5b906020019060200201518d600281518110151561205657fe5b906020019060200201518f600381518110151561206f57fe5b906020019060200201518f600381518110151561208857fe5b6020908102909101810151604080516c01000000000000000000000000600160a060020a03909e169d909d028d84015260348d019b909b5260548c019990995260748b019790975260f860020a951515860260948b015260958a0194909452911515840260b589015260b68801521515820260d687015260d786015291151590910260f7840152815160d881850301815260f890930191829052825182918401908083835b6020831061214c5780518252601f19909201916020918201910161212d565b51815160001960209485036101000a01908116901991909116179052604080519490920184900384207f616464726573732073706c697445544800000000000000000000000000000000858301527f62797465733332206e616d65000000000000000000000000000000000000000060308601527f75696e743235362074696d657374616d70000000000000000000000000000000603c8601527f75696e7432353620616d6f756e745f3000000000000000000000000000000000604d8601527f626f6f6c2069734372656469745f300000000000000000000000000000000000605d8601527f75696e7432353620616d6f756e745f3100000000000000000000000000000000606c8601527f626f6f6c2069734372656469745f310000000000000000000000000000000000607c8601527f75696e7432353620616d6f756e745f3200000000000000000000000000000000608b8601527f626f6f6c2069734372656469745f320000000000000000000000000000000000609b8601527f75696e7432353620616d6f756e745f330000000000000000000000000000000060aa8601527f626f6f6c2069734372656469745f33000000000000000000000000000000000060ba860152825160a981870301815260c99095019283905284519099509395509093508392908501915080838360208310611c015780518252601f199092019160209182019101611be2565b60008080805b86518160ff1610156124a857858160ff1681518110151561238057fe5b90602001906020020151156123c1576123ba878260ff168151811015156123a357fe5b60209081029091010151849063ffffffff61195e16565b92506123ef565b6123ec878260ff168151811015156123d557fe5b60209081029091010151839063ffffffff61195e16565b91505b6040805190810160405280888360ff1681518110151561240b57fe5b906020019060200201518152602001878360ff1681518110151561242b57fe5b6020908102909101810151151590915260008a815260078252604080822060029093528120805460ff861690811061245f57fe5b600091825260208083209190910154600160a060020a031683528281019390935260409091019020825181559101516001918201805460ff191691151591909117905501612363565b8282146124ff576040805160e560020a62461bcd02815260206004820152600e60248201527f4e6f6e2d7a65726f207374617465000000000000000000000000000000000000604482015290519081900360640190fd5b5050506000948552506006602052604090932092909255506001919050565b604080518082019091526000808252602082015290565b828054828255906000526020600020908101928215612595579160200282015b8281111561259557815473ffffffffffffffffffffffffffffffffffffffff1916600160a060020a03843516178255602090920191600190910190612555565b506125a19291506125a5565b5090565b6125d691905b808211156125a157805473ffffffffffffffffffffffffffffffffffffffff191681556001016125ab565b905600a165627a7a72305820a4de7d013688fde6d2855da538a983e0a4b40ee5be66dfa56c84e391ca485a0d0029",
  "source": "pragma solidity ^0.4.24;\n/* pragma experimental ABIEncoderV2; */\n\nimport \"openzeppelin-solidity/contracts/math/SafeMath.sol\";\nimport \"openzeppelin-solidity/contracts/token/ERC20/ERC20.sol\";\nimport \"openzeppelin-solidity/contracts/ECRecovery.sol\";\n\ncontract SplitETH {\n    using SafeMath for uint256;\n\n    struct State {\n        uint256 amount;\n        bool isCredit;\n    }\n\n    mapping (bytes32 => mapping (address => uint256)) public groupBalances;\n    mapping (bytes32 => mapping (address => bool)) public inGroup;\n    mapping (bytes32 => address[]) public groupUsers;\n    mapping (bytes32 => address) public groupToken;\n    mapping (bytes32 => uint256) public groupTimeout;\n    mapping (bytes32 => uint256) public groupCloseTime;\n    mapping (bytes32 => uint256) public groupNonce;\n    mapping (bytes32 => mapping (address => State)) public groupState;\n\n    event GroupCreated(bytes32 indexed _name, address[] _users, address indexed _token, uint256 _timeout);\n    event UserBalanceUpdated(bytes32 indexed _name, address indexed _user, address indexed _token, uint256 _deposit, uint256 _balance);\n    event GroupClosed(bytes32 indexed _name, uint256 _challengeEndTime);\n    event GroupUpdated(bytes32 indexed _name, uint256 _time);\n    event UserBalanceWithdrawn(bytes32 indexed _name, address indexed _user, address indexed _token, uint256 _refund);\n\n    function createGroup(bytes32 _name, address[] _users, address _token, uint256 _timeout) external {\n        require(_users.length > 1, \"Empty group\");\n        require(_users.length <= 4, \"Group too large\");\n        require(groupUsers[_name].length == 0, \"Name in use\");\n        require(_token != address(0), \"Invalid token\");\n        groupUsers[_name] = _users;\n        groupToken[_name] = _token;\n        groupTimeout[_name] = _timeout;\n        for (uint8 i = 0; i < _users.length; i++) {\n            require(!inGroup[_name][_users[i]], \"Duplicate users\");\n            inGroup[_name][_users[i]] = true;\n        }\n        emit GroupCreated(_name, _users, _token, _timeout);\n    }\n\n    function fundUser(bytes32 _name, address _user, uint256 _amount) external {\n        require(_user != address(0), \"Invalid user\");\n        require(inGroup[_name][_user], \"User not in group\");\n        require(groupCloseTime[_name] == 0, \"Group is closed\");\n        require(ERC20(groupToken[_name]).transferFrom(msg.sender, address(this), _amount), \"Transfer Failed\");\n        groupBalances[_name][_user] = groupBalances[_name][_user].add(_amount);\n        emit UserBalanceUpdated(_name, _user, groupToken[_name], _amount, groupBalances[_name][_user]);\n    }\n\n    function closeGroup(bytes32 _name, uint256[] _amounts, bool[] _isCredits, uint256 _timestamp, uint8[] _vs, bytes32[] _rs, bytes32[] _ss) external {\n        require(groupCloseTime[_name] == 0, \"Group already closed\");\n        groupCloseTime[_name] = now.add(groupTimeout[_name]);\n        updateGroup(_name, _amounts, _isCredits, _timestamp, _vs, _rs, _ss);\n        emit GroupClosed(_name, groupCloseTime[_name]);\n    }\n\n    function updateGroup(bytes32 _name, uint256[] _amounts, bool[] _isCredits, uint256 _timestamp, uint8[] _vs, bytes32[] _rs, bytes32[] _ss) public {\n        require(inGroup[_name][msg.sender], \"User is not in group\");\n        require(groupNonce[_name] < _timestamp);\n        require(groupCloseTime[_name] != 0, \"Group not closed\");\n        require(_amounts.length == _isCredits.length, \"Invalid state lengths\");\n        require(_amounts.length == groupUsers[_name].length, \"Invalid user lengths\");\n        require(now <= groupCloseTime[_name], \"Challenge period not active\");\n        //require(checkSigs(_name, _amounts, _isCredits, _timestamp, _vs, _rs, _ss), \"Invalid sigs\");\n        require(_updateState(_name, _amounts, _isCredits, _timestamp), \"Invalid state\");\n        emit GroupUpdated(_name, now);\n    }\n\n    function pullFunds(bytes32 _name) external {\n        require(inGroup[_name][msg.sender], \"User is not in group\");\n        require(groupCloseTime[_name] != 0, \"Close not initiated\");\n        require(now > groupCloseTime[_name], \"Challenge period active\");\n        State memory userState = groupState[_name][msg.sender];\n        uint256 withdrawn;\n        if (userState.isCredit) {\n            withdrawn = groupBalances[_name][msg.sender].add(userState.amount);\n        } else {\n            withdrawn = groupBalances[_name][msg.sender].sub(userState.amount);\n        }\n        require(ERC20(groupToken[_name]).transfer(msg.sender, withdrawn), \"Transfer Failed\");\n        emit UserBalanceWithdrawn(_name, msg.sender, groupToken[_name], withdrawn);\n        groupBalances[_name][msg.sender] = 0;\n        inGroup[_name][msg.sender] = false;\n    }\n\n    function _updateState(bytes32 _name, uint256[] _amounts, bool[] _isCredits, uint256 _timestamp) internal returns(bool) {\n        uint256 credits;\n        uint256 debits;\n        for (uint8 i = 0; i < _amounts.length; i++) {\n            if (_isCredits[i]) {\n                credits = credits.add(_amounts[i]);\n            } else {\n                debits = debits.add(_amounts[i]);\n            }\n            groupState[_name][groupUsers[_name][i]] = State(_amounts[i], _isCredits[i]);\n        }\n        require(credits == debits, \"Non-zero state\");\n        groupNonce[_name] = _timestamp;\n        return true;\n    }\n\n    function checkSigs(bytes32 _name, uint256[] _amounts, bool[] _isCredits, uint256 _timestamp, uint8[] _vs, bytes32[] _rs, bytes32[] _ss) public view returns(bool) {\n        require(_vs.length == _rs.length, \"Bad signatures\");\n        require(_vs.length == _ss.length, \"Bad signatures\");\n        require(_vs.length == groupUsers[_name].length, \"Incorrect sigs length\");\n        require(_vs.length == _amounts.length, \"Incorrect amounts length\");\n        for (uint8 i = 0; i < groupUsers[_name].length; i++) {\n            require(checkSig(_name, groupUsers[_name][i], _amounts, _isCredits, _timestamp, _vs[i], _rs[i], _ss[i]), \"Invalid signature\");\n        }\n        return true;\n    }\n\n    function checkSig(bytes32 _name, address _user, uint256[] _amounts, bool[] _isCredits, uint256 _timestamp, uint8 _v, bytes32 _r, bytes32 _s) public view returns(bool) {\n        require(_amounts.length == _isCredits.length, \"Incorrect isCredits length\");\n        bytes32 typedData;\n        if (_amounts.length == 2) {\n            typedData = _getHash2(_name, _amounts, _isCredits, _timestamp);\n        }\n        if (_amounts.length == 3) {\n            typedData = _getHash3(_name, _amounts, _isCredits, _timestamp);\n        }\n        if (_amounts.length == 4) {\n            typedData = _getHash4(_name, _amounts, _isCredits, _timestamp);\n        }\n        require(_user == ecrecover(typedData, _v, _r, _s), \"Signature mismatch\");\n        return true;\n    }\n\n    function _getHash2(bytes32 _name, uint256[] _amounts, bool[] _isCredits, uint256 _timestamp) internal view returns(bytes32) {\n        bytes32 stateData = keccak256(abi.encodePacked(address(this), _name, _timestamp, _amounts[0], _isCredits[0], _amounts[1], _isCredits[1]));\n        bytes32 abiHash = keccak256(abi.encodePacked(\"address splitETH\", \"bytes32 name\", \"uint256 timestamp\", \"uint256 amount_0\", \"bool isCredit_0\", \"uint256 amount_1\", \"bool isCredit_1\"));\n        bytes32 typedData = keccak256(abi.encodePacked(abiHash, stateData));\n        return typedData;\n    }\n\n    function _getHash3(bytes32 _name, uint256[] _amounts, bool[] _isCredits, uint256 _timestamp) internal view returns(bytes32) {\n        bytes32 stateData = keccak256(abi.encodePacked(address(this), _name, _timestamp, _amounts[0], _isCredits[0], _amounts[1], _isCredits[1], _amounts[2], _isCredits[2]));\n        bytes32 abiHash = keccak256(abi.encodePacked(\"address splitETH\", \"bytes32 name\", \"uint256 timestamp\", \"uint256 amount_0\", \"bool isCredit_0\", \"uint256 amount_1\", \"bool isCredit_1\", \"uint256 amount_2\", \"bool isCredit_2\"));\n        bytes32 typedData = keccak256(abi.encodePacked(abiHash, stateData));\n        return typedData;\n    }\n\n    function _getHash4(bytes32 _name, uint256[] _amounts, bool[] _isCredits, uint256 _timestamp) internal view returns(bytes32) {\n        bytes32 stateData = keccak256(abi.encodePacked(address(this), _name, _timestamp, _amounts[0], _isCredits[0], _amounts[1], _isCredits[1], _amounts[2], _isCredits[2], _amounts[3], _isCredits[3]));\n        bytes32 abiHash = keccak256(abi.encodePacked(\"address splitETH\", \"bytes32 name\", \"uint256 timestamp\", \"uint256 amount_0\", \"bool isCredit_0\", \"uint256 amount_1\", \"bool isCredit_1\", \"uint256 amount_2\", \"bool isCredit_2\", \"uint256 amount_3\", \"bool isCredit_3\"));\n        bytes32 typedData = keccak256(abi.encodePacked(abiHash, stateData));\n        return typedData;\n    }\n\n}\n",
  "sourcePath": "/Users/pabloruiz55/Documents/SplitETH/contracts/SplitETH.sol",
  "compiler": {
    "name": "solc",
    "version": "0.4.24+commit.e67f0147.Emscripten.clang"
  },
  "schemaVersion": "2.0.1",
  "updatedAt": "2018-09-08T22:29:30.463Z"
}